S01B00006770645F73656E736F725F6D6732325F763637332E73333799
S214000000200A002019D30000455800004958000077
S214000010A70B0000000000000000FFFF54000000D7
S21400002004180F00000000000000000000000000A0
S21400003000000000000000000000000000000000BB
S21400004000000000000000000000000004010000A6
S20800005000000000A7
S214000054200A002019D30000455800004958000023
S214000064A70A0A010002000004180FAC3067040156
S2140000740000000000000000000000000000000077
S2140000840000000000000000000000000000000067
S2140000940000000000000000FFFFFFFFFFFFFFFF5F
S2140000A4FFFFFFFF006007000000000000000000E4
S2140000B4FFFFFFFFFFFFFFFFDD0000000000000062
S2140000C40000000000000000000000000000000027
S2140000D40000000000000000281A0020281A002053
S2140000E4200A002018180100F0D70000C0000020E5
S2100000F4A000002000E007000000000054
S214000200200A002019D30000455800004958000075
S214000210B15F00004D5800005558000015D300008F
S21400022015D3000015D3000015D3000015D3000029
S2140002305958000015D3000015D3000015D3000050
S214000240385A0000385A0000385A0000385A000061
S214000250385A0000385A00004922000031300000A9
S214000260385A0000385A0000385A0000385A000041
S2140002704D200000385A0000385A0000296F000050
S214000280385A0000385A0000385A000015D30000CB
S214000290385A0000491A0000385A0000385A000040
S2140002A0385A0000491B0000211B0000385A000085
S2140002B0385A0000385A0000385A0000C9CD0000ED
S2140002C079CD000075CD0000C5C40000C5CD000086
S2140002D07DCD00009DCD000081CD000025CE000024
S2140002E03DB5000085B500000DCE0000355C000071
S2140002F0385A0000385A0000385A0000385A0000B1
S214000300385A0000385A0000385A0000385A0000A0
S214000310385A0000385A0000385A0000385A000090
S214000320385A0000385A0000385A0000385A000080
S214000330385A0000385A0000385A0000385A000070
S214000340F8B500BFF8BC08BC9E467047F8B500BFBD
S214000350F8BC08BC9E46704710B5054C237833B9E8
S214000360044B13B1044800E000BF0123237010BD06
S214000370DC0D0020000000005414010008B5034BFB
S2140003801BB10349034800E000BF08BD00000000A1
S214000390E00D002054140100154B002B08BF134B32
S2140003A09D46A3F5803A00218B460F461348144A13
S2140003B0121A0DF003FA0F4B002B00D098470E4B85
S2140003C0002B00D098470020002104000D000D48A7
S2140003D0002802D00C4800E000BF0DF0B1F9200064
S2140003E0290000F085F90DF097F900BF000008001D
S2140003F0200A00200000000000000000DC0D0020A5
S214000400281A00200000000000000000002307B5A6
S214000410CDE90033012369464FF0FF308DF80230F6
S21400042007F0E6FF003018BF012003B05DF804FBBC
S21400043030B5E42301258FB004460DF10F022821C4
S2140004400DF111008DF810308DF80F5004F026FADB
S2140004509DF80F30009563734319DBB204AA21465A
S214000460002005F01FF89DF80F000FB030BD2DE9F5
S214000470F3411378114613F0010F14BF032401242F
S2140004809A070646C3F3C1074FEA531800F1120550
S21400049019D5C3F380036BB104F1140304F1100201
S2140004A00B440A440095214404F02AFF58B14FF04B
S2140004B0FF300FE02846E218D2B28A5C0133102BD8
S2140004C000F8012BF7D186F811803774284604F01F
S2140004D065FE002002B0BDE8F08108B500F066F9C0
S2140004E0BDE80840022000F067B938B50D4604465E
S2140004F000F00EF92A462146FFF7B9FF20B9BDE8FD
S2140005003840042000F058B938BD1FB5E12304AACE
S214000510044602F8043D0020012321460093607340
S21400052004F0C0FF204600F0F7F804B010BD00004D
S2140005302DE9F04F90F82B5091B00446002D51D184
S2140005400122654E0582337880F8282063BB02734B
S21400055006AA90464373614B03F1100715461868C8
S2140005605968083303C5BB422A46F7D104274FF023
S214000570E30A4FF00109002518F8053002AA84F8AE
S2140005802930CDF800900223214601200135ADF830
S21400059008A004F087FF102DEED1013FEBD186F8BE
S2140005A0009011B0BDE8F08F012B18D105734FF005
S2140005B00B080425E327437394F82B30022B0ED048
S2140005C0012084F829800090022306AA2146ADF86F
S2140005D0187004F067FF013DEED184F82B5000231D
S2140005E03370DEE7022D54D13D4F3B783E46C3BB09
S2140005F004271D46DFF8F0A0DFF8F090437302AA48
S2140006009446384B03F11008964618685968083324
S214000610AEE8030043457246F6D1D4F824B00DF197
S214000620400861460BAB07AA48F828AD257420465B
S21400063004F022FE59464FF0010B0CA800F0C6F855
S214000640CDF800B02123424621460020CDF8349054
S2140006508DF8385004F026FF013FD0D186F800B060
S2140006609FE7012B05D1FFF7E3FE002899D03D70E8
S21400067097E7022BB3D1042594F82B30042BAED089
S2140006802046FFF7D5FE013DF6D184F82B50357095
S21400069087E7042D0DD1E22310AA02F8283D012396
S2140006A001460093002004F0FDFE052000F084F8CB
S2140006B077E7053D012D0BD8E22310AA02F8283D66
S2140006C0012301460093002004F0ECFE0620EDE72F
S2140006D0002380F82B3064E7F90D0020F0D70000E7
S2140006E0F80D002000D80000E012E7F32302100007
S2140006F008B505F0DFFA04F081FA04F039F904F0E1
S2140007009BFC00F041F804F097F9002008BD0000BB
S21400071000487047FC0D00200022F0B54272184ACF
S21400072085B002600B2280F8292050226D46C273E5
S2140007300122142103462C46427380F82820114AD1
S214000740817302F110072E4610685168083203C6FE
S214000750BA423546F7D103F1120504AE224603CA63
S214000760B24228606960144605F10805F6D10422F5
S2140007705A7403221A74002283F82B2005B0F0BDA9
S2140007804433221110D8000010B5074C2046FFF75E
S214000790C3FF204604F088FA2046626A04F112017C
S2140007A004F01EFE204610BDFC0D0020014B83F811
S2140007B029007047FC0D0020014B83F82B00704782
S2140007C0FC0D002000487047FC0D00200B0A01704D
S2140007D043700B0C090E8370C170704738B5437AAE
S2140007E005460C463BB94A7AEAB900680B68C31A54
S2140007F05842584138BD022B15D14B7A022B12D1E4
S21400080008220CF0C1FF70B92B7A207A83420CD0F4
S214000810013BDBB2FD2B08D80138C0B2FD2894BFDF
S21400082000200120E6E70020E4E70120E2E70128B7
S21400083004D000280CBF012002207047002070471B
S2140008404FF480732DE9F04385B0ADF80C3001F01D
S2140008504BF901213A2002F035FD00240127DFF88C
S2140008604480DFF8449003ABE35C012218F8336061
S21400087008EBC3035D6830460023294603F0C8FB37
S2140008804946E8B201F03EF9CDE9007701232A4651
S2140008902946304603F068FB14B105B0BDE8F08386
S2140008A00124E0E720D800002D09000008B5FFF776
S2140008B0BEFF022816BF024B0020185C08BD00BF12
S2140008C0280E002008B5FFF7B2FF02281CBF014B18
S2140008D0195408BD280E002008B5FFF7A8FF022807
S2140008E005D0034A135CB3FA83F35B09135408BDBF
S2140008F0280E002008B5FFF79AFF02280FD03021F7
S214000900084A12F8303002EBC0025943064B5068D2
S2140009105B5823FA00F0C04300F0010008BD002039
S214000920FCE700BF20D8000014C0034070B50446A2
S2140009300026FFF7DFFF054601E000261D4620469D
S214000940FFF7D8FFA8420346F7D10136052EF2D1AD
S2140009502046FFF7ABFFA8420BD029462046FFF7FC
S214000960B1FF2046FFF7A2FF0146204604F03EF8FE
S21400097070BD2046FFF7B0FF2046FFF797FF014601
S214000980204604F033F82046FFF7A6FFE9E7704755
S21400099010B5FFF7BDFE0446002000F013FAC0B203
S2140009A0012804D12046BDE81040FFF7C1BD20B99C
S2140009B02046BDE81040FFF7A8BDFF2803D1BDE8DC
S2140009C0104003F0FDBF10BD10B58EB0FFF7A0FEBF
S2140009D0427A0446002A5AD103683949212006F093
S2140009E091F8227B3749212006F08CF894F82920CC
S2140009F03549212006F086F894F82B20334921202B
S214000A0006F080F8627B3249212006F07BF8E27B14
S214000A103049212006F076F8A27B2F49212006F0E7
S214000A2071F8227C2D49212006F06CF8627C2C4956
S214000A30212006F067F894F82110A27CE37C0D9143
S214000A4094F8201021200C91E17F0B91A17F0A9150
S214000A50617F0991217F0891E17E0791A17E069131
S214000A60617E0591217E0491E17D0391A17D029135
S214000A70617D0191217D00911A4906F043F82120FD
S214000A80626A19490EB0BDE8104006F03BB8022A6B
S214000A90A7D10178037A079141780691817805916C
S214000AA0C17804910179039141790291817901918C
S214000AB0C179212000910D4906F024F891E700BF86
S214000AC030D8000078D8000086D8000092D8000001
S214000AD0A0D80000AED80000C6D80000DED80000BF
S214000AE0ECD80000FED800002DD900004BD800003E
S214000AF010B5FFF70DFE0446002000F063F9003045
S214000B0018BF0120207310BD10B5FFF701FE044684
S214000B10002000F057F9C0B2607220B9012000F042
S214000B2051F9206010BD0228FCD1012000F04AF9DE
S214000B302072F7E710B5FFF7EBFD0446002000F043
S214000B4041F9002814BF0123002363730DD0012050
S214000B5000F038F9003018BF0120A073022000F022
S214000B6031F9003018BF0120E07310BD10B5FFF753
S214000B70CFFD0446002000F025F984F8290010BDBA
S214000B8010B5FFF7C5FD0446002000F01BF96062B3
S214000B9010BD13B5FFF7BCFD0DF10701044600209C
S214000BA000F014F99DF80730102B09D104F1120358
S214000BB000F1100250F8041B904243F8041BF9D1D0
S214000BC002B010BD10B5FFF7A3FD0446002000F0EC
S214000BD0F9F8607410BD10B5FFF79AFD04460020C2
S214000BE000F0F0F8207410BD30B585B0FFF790FD2A
S214000BF00546002000F0E6F80DF10F01044601203E
S214000C0000F0E4F801229DF80F30009229460246D3
S214000C10E0B204F047FC05B030BD00000023FF2121
S214000C20084A137082F8783082F8653082F8773098
S214000C3082F8793082F87A1082F87B30024A1360A4
S214000C40704700BF2A0E0020E8180020F8B50D46B1
S214000C508C680A6806462849212000F086FC6B68E6
S214000C607BB92649212000F080FC212005F044FFB6
S214000C702349212000F08EFCBDE8F840212005F035
S214000C803BBF002EF1D01F4D1F4E204F013C14F8E5
S214000C90013F23B91A49212000F07CFCE5E7752BBB
S214000CA018D0762B18D0772B18D0732B18D0722B21
S214000CB018D0712B18D0622B18D06E2B18D02A2B78
S214000CC018D01349134A212B18BF1146212000F0D3
S214000CD04CFCDCE72946F9E73146F7E73946F5E705
S214000CE00D49F3E70D49F1E70D49EFE70D49EDE74B
S214000CF00D49EBE70D49E9E7F8D90000D3D9000024
S214000D0084D9000091D9000085D900009CD9000044
S214000D10DDD90000DAD90000A8D90000B2D9000059
S214000D20BDD90000C8D90000D2D90000D7D900002C
S214000D30F0B50026204A92F87B30184452FA80F02C
S214000D4090F865C090F8665030461C4BA5EB0C0535
S214000D501F78EDB2F4B2A54225D90CEB0603134476
S214000D605B7811B10CB92D2B17D0782B1FD0582BD0
S214000D7005D108B137240AE0013C012C14D9602BB8
S214000D8017D8402BF6D83A2B34BF302400241B1B30
S214000D90DBB29F4203D900FB07300136DAE70523B2
S214000DA0002082F87930F0BD10270020F5E70028F3
S214000DB0E2D05724EBE700BF2A0E00204C0A0020A2
S214000DC0FFF72CBF0021FFF7B3BF000030B50C4A79
S214000DD092F87B300344C043DBB2C00F39B1D5185C
S214000DE095F8664095F86550641B241A0C7042FA14
S214000DF083F393F865301844024B184430BD00BFA7
S214000E002A0E00202B0E00200047000038B50546AD
S214000E1001460120FFF71AFFD5E901436CB91C46CD
S214000E20084D236863B12946212000F09EFB214629
S214000E300020FFF70BFF0C34F3E71B786E2BEFD088
S214000E4038BD00BF42D9000008B50449212000F093
S214000E508CFBBDE80840212005F04EBE45D90000B9
S214000E6038B5FFF7F1FF0024054D61190C346319FE
S214000E7053F80C3C03B938BD0020FFF7E7FEF4E753
S214000E8068DC00002DE9F84F1F4B204D53F820205A
S214000E901F49212000F069FB2B681BB9BDE8F84FFD
S214000EA0FFF7DEBF1B4FFFF7CFFF0026B946DFF880
S214000EB06CA097F87B30F4B2013B9C4204DB2868B8
S214000EC0BDE8F84FFFF7A2BF47FA86F393F86580B0
S214000ED000234C44C84494F8662094F8651003F147
S214000EE0010B521ADBB2D2B2934205D30A49212033
S214000EF000F03BFB0136DCE743445A78514621209C
S214000F0000F033FB5B46E6E7500A0020E8180020B6
S214000F103AD900002A0E002043D900003FD900002D
S214000F202DE9F74F884C94F87730002B00F0A1801D
S214000F30864B671C1B7813F0010F1FD00025844ECC
S214000F4014E0631993F8662093F865302120D21ACE
S214000F5044FA85F393F86510D2B2394405F0C7FD1C
S214000F603146212000F001FB0135EDB294F87730D0
S214000F70AB42E6D87749212000F0F7FA002694F82D
S214000F807730DFF8DCE10193734B4FF000087146D1
S214000F9045461EF8012B91F801C007EB020AACEBA0
S214000FA0020C5FFA8CFC1868002852D00138D14633
S214000FB019E02AB9002D4AD04FF001080C33F2E7A9
S214000FC019F8011BA1F1410BBBF1190F98BF203195
S214000FD0A2F1410B98BFC9B2BBF1190F9CBF2032DA
S214000FE0D2B28A42EAD1A9EB0A01614510F8012F74
S214000FF0DFD1002ADED11D46584B01361D6094F81D
S2140010007B30F6B2013384F87B30D5E90123002A21
S21400101035D01B786E2B31D03F2B23D04FF00009F4
S2140010204FF0070BC846042394F87710AA68B1421D
S21400103012F808702BD8AFB1904498F801302A2BDC
S21400104010D0212F1CBF032384F879300AE01D46F8
S214001050B4E7B8F1000F01D1002DCDD10223002551
S21400106084F8793094F87900002869D16868FFF729
S214001070CBFE03B0BDE8F04FFFF7D0BD1346019A94
S214001080B24282D803221D4684F87920EAE7732FFD
S21400109009D8712F0BD2212F1FD0622F3CD0002FE2
S2140010A04BD1032246E0A7F17502022A45D8752FD8
S2140010B029D0762F2AD0732F2BD0722F47F6FF7A9F
S2140010C018BF4FF0FF3A012148460193FFF730FE64
S2140010D05045019B01D984F87930AA684244527879
S2140010E02A2A94F879201CBF08F101085FFA88F8CC
S2140010F0002AB7D1212F1FBF013609F10109F6B228
S2140011005FFA89F990E74FF0FF0ADCE74FF6FF7ABF
S214001110D9E74FF07F0AD6E794F87B204A4454FA82
S21400112082F292F8652022445278222AD5D07B2A71
S214001130D3D0052284F87920CFE784F879B0CCE7BD
S214001140FFF7A0FE95E700BF2A0E0020A60E00209F
S21400115043D9000082D9000068DC0000E8180020AF
S2140011608F0E00202DE9F34106460D464FF000088D
S2140011705C4C5D4F66B90DF10701284605F0B2FCE0
S21400118078B1262800F0A980012384F879304BE056
S214001190002D00F0A28016F8013B013D8DF80730C7
S2140011A0EDB23A789DF807300D2A3B7001D10A2B34
S2140011B0E0D00D2B0CD0A3F10A0251425141227807
S2140011C08846042AD6D8DFE802F0051D263C310002
S2140011D00121F4E721B1FFF7A3FE4FF00108C9E7AC
S2140011E0202B63D0222B07D10223237094F878207B
S2140011F0642A5DD10623C8E77B2B01D10323F4E7DD
S2140012000123F2E709B9202BF0D194F87730112B9F
S2140012103FD10323B9E7222BF7D00029E6D00523D8
S2140012204FF0010884F8793004232370B8F1000FDA
S214001230A0D094F8790008B1FFF724FEFFF7EEFC83
S21400124098E77D2B94F87A0003D1FF28DDD005239C
S2140012509BE7602B13D8402B13D8392B8CBF00226A
S21400126030229A1AD2B20F2A10D8FF280BD0FF23AA
S21400127002EB00128DF8072084F87A30B6E7572282
S214001280EFE73722EDE784F87A2073E7202BDED1EC
S21400129070E70133DBB294F8782084F87730234483
S2140012A083F8652000232370002994D1884661E7DF
S2140012B02378012B09D19DF80730A3F141011929A4
S2140012C09CBF2033DBB28DF807309DF80710A318BB
S2140012D00132597084F878204CE7404602B0BDE8E9
S2140012E0F08100BF2A0E0020A70E002070B516461B
S2140012F085180AB9304470BD01F00F030A2B34BFBD
S21400130030243724013A2344090905F8013DD2B2B6
S214001310EFE70000F0B5F9B100281CDA2D23B0F194
S214001320004F137000D04042012115E0801B86421A
S214001330ECB205F10105F9D904B927B101274D1C16
S21400134030345454E9B20133092B09D130305054AB
S2140013500131C8B2F0BD002100231F46DFF808C0E7
S2140013605CF823600025E2E76CDA00002DE9F04F18
S2140013704FF0000B95B002AC81468A4617461D46D4
S2140013805E46A0463B7863B902ABE41AE4B2224656
S21400139019465046C847002840F093803444E0B2CF
S2140013A090E0252B13D0BBF1000F14D1237001342D
S2140013B012AB9C426DD3A4EB0804E4B2224641462D
S2140013C05046C84700287CD12644F6B260E0BBF100
S2140013D0000F00D101373B78632B00F092801BD8BA
S2140013E0392B09D8302B80F09E80002BCCD0252BB3
S2140013F051D04FF0000BDBE7582B00F08B80622BB0
S214001400F7D14FF0000B2B6801936B680093009B9D
S2140014109B4543D10835ECE7702B1ED017D8642BBC
S21400142001D06C2BE5D16C2B05F1040B28686CD130
S2140014307B78752B14BF0121002101D0642B00D1CD
S21400144001372246FFF766FF04445D46D1E7752B59
S214001450E9D0782B5ED0732BCBD1A4EB0804E4B292
S214001460224602A9504605F1040B2D68C84740BB2A
S2140014702644F6B2C4B22B5D0130002BFAD12246C8
S21400148029465046C847E0B95D4683462644F6B22C
S2140014904446013776E723700134AAE7019B2046CD
S2140014A013F80B100222FFF721FF12AB98420446F6
S2140014B00ED3A0EB0804E4B2224641465046C84785
S2140014C018B1002015B0BDE8F08F26444446F6B2A9
S2140014D0009B013B5B4582BF20232370013412AB87
S2140014E09C420BD3A4EB0804E4B222464146504685
S2140014F0C8470028E5D126444446F6B20BF1010B56
S21400150085E72B6804352370C6E7752B0CBF0021D2
S214001510012196E7204602222978FFF7E7FE05F12B
S214001520040B044691E77A7802F0DF02582A19D1B4
S214001530322B07F1010B09D10422204629882F1DE2
S214001540FFF7D4FE3D4604465F4652E7342B09D1EA
S2140015502F1D2D680422290C2046FFF7C7FE042203
S214001560A9B2EDE74FF0010B22E70EB403B503AACC
S21400157052F8041B019205F077FDC0B202B05DF888
S21400158004EB03B0704700000149FFF7EEBF00BF51
S21400159082D900000EB433B505AA52F8041B0546DE
S2140015A0019205F061FD04462846FFF7EDFFE0B224
S2140015B002B0BDE8304003B0704700002DE9F04FA0
S2140015C09B46584B85B01B78064689461546109FA5
S2140015D09DF844A0DDF85080002B00F09280072A8A
S2140015E000F291800E9B002B00F08D800F9B002B4D
S2140015F000F08980129BB3F5006F00F38480012809
S21400160001D1002F7FD0484B03EB05131B7B002B2B
S2140016107BD0464C1022002168460CF0CFF804EB35
S21400162045141022B9F1000F5CD1494620460CF053
S214001630C5F8A37843F01003A370E37843F03003B3
S214001640E370BAF1000F03D1DBB243F00303E3709B
S21400165036496A01129B885A013B63F30E100E9BB3
S21400166001EB020C8852CCF808300F9B9DF84C100A
S214001670CCF804309CF80330012E61F38303CDF8D8
S21400168000B08CF8033042D113230CF1100ECCF8C6
S2140016900C309CE80F008EE80F006FF00301DCF8BA
S2140016A01C20B9F1010F61F39F02CCF81C20CCF886
S2140016B0147004D10F9BCCF80470CCF818300027B7
S2140016C019492A018B1841F80280159A28465A6053
S2140016D09F605E732246694602F03CFD384605B0C0
S2140016E0BDE8F08F002120460CF068F81023A370A8
S2140016F00323E370BAF1000FAAD1DBB243F0300344
S214001700A5E70B48EBE70B48E9E70B48E7E7B8F136
S214001710000FD4D19CF8023068F304138CF8023022
S214001720CDE700BF28100020A80E0020280F0020BC
S214001730028000F0018000F0078000F038B5104B02
S21400174005461B78BBB1C0B102F00FFA00230D4965
S21400175001EB0312147B3CB92B6001231460137356
S21400176002F009FA204638BD0133082BF0D102F00A
S21400177002FA0548F7E70548F5E70548F3E700BF2E
S21400178028100020A80E0020048000F0028000F040
S214001790018000F038B502F0E8F9002305460A4A51
S2140017A0D1180C7B5CB91033802BF9D102F072FC97
S2140017B0064B28461C7002F0DEF9204638BD284647
S2140017C002F0D9F90248F9E7A80E002028100020F8
S2140017D0058000F00D4B10B51B78044693B1072822
S2140017E012D802F0C2F90A4B03EB04131A7B2AB193
S2140017F000241C7302F0BFF9204610BD02F0BBF9AE
S2140018000448FAE70448F8E70448F6E728100020FA
S214001810A80E0020068000F0028000F0018000F094
S214001820164B13B51868002301908DF8043002F0AB
S2140018309CF9134B1C7824B102F09DF9114802B0B4
S21400184010BD01221A7002F096F90F4B1C731C771C
S21400185083F82C4083F83C4083F84C4083F85C4087
S21400186083F86C4083F87C4004230DEB03008DF86E
S214001870073002F03DFC2046E1E700BF90DA0000AA
S21400188028100020038000F0A80E002010B588B0B5
S2140018900E9C009207940D9C024606949DF83040DC
S2140018A005940B9C04949DF8284003940024CDE9ED
S2140018B0013420460B462146FFF780FE08B010BDD7
S2140018C010B588B00E9C009207940D9C02460694B4
S2140018D09DF8304005940B9C04949DF82840039492
S2140018E00024CDE9013420460B460121FFF766FEB1
S2140018F008B010BD08B50A4B1B785BB107280BD89B
S214001900084B03EB00131B7B43B1002102F0E0FB06
S214001910002008BD0448FCE70448FAE70448F8E756
S21400192028100020A80E0020028000F0018000F0A1
S214001930078000F008B50A4B1B785BB107280BD868
S214001940084B03EB00131B7B43B1012102F0C0FBE5
S214001950002008BD0448FCE70448FAE70448F8E716
S21400196028100020A80E0020028000F0018000F061
S214001970078000F008B50A4B1B7853B107280AD831
S214001980084B03EB00131B7B3BB102F033FC00203B
S21400199008BD0548FCE70548FAE70548F8E700BF34
S2140019A028100020A80E0020028000F0018000F021
S2140019B0078000F00D4B1B7893B1072812D889B129
S2140019C00B4B03EB00131B7B73B10A4BDA6A012344
S2140019D003FA00F010401ABF00200B700870704722
S2140019E0054870470548704705487047281000208E
S2140019F0A80E002000000440028000F0018000F0E5
S214001A00078000F00B4B10B51B780C4663B1072817
S214001A100CD859B1084B03EB00131B7B43B102F003
S214001A20FBFB2060002010BD0448FCE70448FAE7F2
S214001A300448F8E728100020A80E0020028000F0D6
S214001A40018000F0078000F02DE9F843174B1F6D6A
S214001A505B6D1F4000D5FEE701260025144CDFF81D
S214001A605480DFF85490374217D02368C8F80060D7
S214001A709BB1A16862680131A16028469847637BE4
S214001A80012B0AD148B909EB4513197B1A7F60F37D
S214001A90410160F3410219731A770135082D4FEAA8
S214001AA0460604F11004DED1BDE8F88300000440C9
S214001AB0A80E002050200440280F002070B50446D1
S214001AC00125084E04B970BD94FAA4F0B0FA80F06F
S214001AD005FA00F324EA030456F82030002BF1D070
S214001AE09847EFE72C1000204FF00072044BC3F825
S214001AF080211A604FF08062C3F880211A60704718
S214001B0000E100E038B504460D4602F02EF8034B1F
S214001B1043F82450BDE8384002F02DB82C100020C1
S214001B20084BD3F82404D3F82024104042F2204275
S214001B3020F42A5020F02A004004400C9850FFF76A
S214001B40BDBF00BF00C00340084BD3F82404D3F841
S214001B502024104042F2204220F4AA4020F05500F3
S214001B600004000C9850FFF7A9BF00BF00C0034058
S214001B70104A30B5136841611546ABB910608360F2
S214001B8011E0091B9C6841611A467CB123465C69DA
S214001B908C42F6D9002CF4D052B19060836013B119
S214001BA05A69511A596130BD0022F0E72346F4E71E
S214001BB02860F3E77C10002010B500F0EFF9094B21
S214001BC0094A196831B11368C41A4B69A34203D392
S214001BD01B1B4B61106003E0C01A002310604B61B2
S214001BE010BD00BF7C10002070100020074B10B501
S214001BF01B6802205C69064B1B681C4400F002FA56
S214001C002046BDE8104000F0D1B900BF7C1000208F
S214001C107010002070B59DF814501646057100250A
S214001C20049A8560BDF818500446C5800260C0E975
S214001C3003360D4629B961610BB11146984796B136
S214001C40354601F092FF0646FFF7B6FF29462046C6
S214001C50FFF78EFF054B1B68A34201D1FFF7C6FFB7
S214001C60304601F088FF002070BD00BF7C100020C9
S214001C7000210C4A13687BB183420AD1836879B18C
S214001C808B6083681BB15A6941690A445A61002017
S214001C90704719469B68EEE70028EFD00220704791
S214001CA01360EEE77C10002070B501F05EFF104D6B
S214001CB006462C78BCB90F4B1C600F4B1C600F4BB4
S214001CC01C8000F029F9012000F09CF900F0D8F9FA
S214001CD02346024640F2E73109480BF093FB094BD6
S214001CE0186001232B70304601F045FF002070BDC0
S214001CF06C1000207C10002070100020781000204F
S214001D0018FCFFFF74100020F8B5054600B301F07C
S214001D102CFF104C0646FFF74FFF2268AA420DD153
S214001D20022000F07BF901272846FFF7A1FF0546B1
S214001D3030B1304601F01FFF2846F8BD0027F3E714
S214001D40002FF6D02368002BF3D0FFF74FFFF0E705
S214001D502225F1E77C100020F0B50D4685B016462A
S214001D601F46044680B1FFF7CFFFBDF82C30002297
S214001D7002939DF828302946CDE900732046334665
S214001D80FFF748FF05B0F0BD2220FBE7F0B50D4693
S214001D9085B016461F46044680B1FFF7B5FFBDF86E
S214001DA02C302A4602939DF828302946CDE9007348
S214001DB020463346FFF72EFF05B0F0BD2220FBE796
S214001DC038B50C46054698B191B100230B7001F06A
S214001DD0CCFE0121074B1B680BB122781AB101F02B
S214001DE0CAFE002038BD9D420CBF21709B68F3E7F9
S214001DF02220F7E77C10002000F042B938B50A4BE5
S214001E0004461B680D4683420CD300F039F94FF4A4
S214001E107A720023A4FB00010BF0F4FA013028606C
S214001E20002038BD2120FCE774100020C2072DE9F1
S214001E30F84F044608D5354A138801339BB2138001
S214001E40FFF7BAFEFFF7D2FEA3075DD500F0A6F8AF
S214001E502F4E074635684FF0000A451B01F085FEF9
S214001E608046DFF8B090D9F80040002C44D0636973
S214001E70AB4205D95D1B65613760FFF7B7FE3EE0F4
S214001E8023462A4637605969914209D8187994F84A
S214001E9004C0521A844588BF1C469B68002BF2D1AA
S214001EA0404601F068FED4F81480C4F814A001F08F
S214001EB05CFE83462046FFF7DBFE584601F05BFEDD
S214001EC023694BB101F051FE834621692046FFF796
S214001ED04FFE584601F04FFEE36813B121682046D6
S214001EE0984700F05BF84744ED1B0446054401F0B4
S214001EF03CFE27468046B6E7022000F08FF84046B4
S214001F00BDE8F84F01F037BEBDE8F88F7810002026
S214001F10701000207C1000201FB500241C4B0121EF
S214001F2018689A88029053F8060FADF80C201B79B3
S214001F3000903E208DF8043001F0C4F902A88DF818
S214001F4008408DF80C4002F0D7F9694601208DF85C
S214001F50004002F095F94FF0904340F2FF319A6945
S214001F6022F47F7222F003029A610A4A11609A6A8A
S214001F7012F00802FBD11A62012002F09BF94FF41E
S214001F808052054BC3F880211A6004B010BD00BF14
S214001F9094DA00001420004800E100E04FF090437F
S214001FA09A6A1207FCD4186A704700004FF09042F5
S214001FB0936A1907FCD4136A116C5269520604D44A
S214001FC0CA1A022A01D8994219D1C21A012A0C4A01
S214001FD098BF981C1378B0F1FF3F28BF01303BB183
S214001FE04FF09041CB6B43F00203CB63002313709A
S214001FF04FF0904318649A6942F040029A61704725
S214002000700A002082074FF0904200F001039169A9
S21400201048BF43F040030B4393617047830700F0CB
S21400202001020AD50121084B42F0400219704FF018
S2140020309041CB6B23F00303CB634FF090418B6949
S21400204023EA02038B617047700A002010B501F086
S2140020508CFD4FF0904304465B695A06074A03F02E
S214002060010003F0510348BF40F002001360FFF781
S214002070DDFE2046BDE8104001F07DBD142000487E
S2140020803E2001F069B90000002211462D48F0B547
S21400209003682D4D54592CB11E68AC18002E3DD146
S2140020A0234601210832282AF4D101B10360002218
S2140020B014462649264E0B6895592DB11F68B5184B
S2140020C0002F32D12B4601240832282AF4D104B13D
S2140020D00B6000680368002B2FD04FF04022936FF0
S2140020E0007923F0FF7323F4803343EA00439367B9
S2140020F0184B4FF0004209681A600B68FBB14FF0AE
S2140021004022936F097923F4FF7323F001030B43F6
S2140021109367104B4FF080421A60F0BD1E79277906
S214002120B74284BF23460121BCE71F7995F804C057
S214002130BC453CBF2B460124C6E7074BD9E7064BF8
S214002140E8E700BF841000209410002088100020CC
S214002150BC100020685000406860004010B50122A6
S21400216028240F4B00211A700E4822460BF026FB3F
S214002170224600210C480BF021FB0C4B0C4A136046
S2140021800C4A13604FF040430B4A136053604022E2
S2140021900A4BC3F880211A60FFF776FF002010BDB7
S2140021A08010002094100020BC1000208C1000200E
S2140021B084100020881000206460004000E100E0E9
S2140021C04FF04022D2F88800D2F88830C0F388005A
S2140021D0C3F388039842F5D16FF48873184440B26D
S2140021E0704700004FF04022936E526E10B51340B9
S2140021F013F0804211D0114B1B681C682CB10021D3
S21400220019605960FFF7DCFFA0474FF080420C4B87
S2140022101A60BDE81040FFF737BF002BF9DA094B0C
S2140022201B681C682CB11A605A60FFF7C9FF0121B1
S214002230A047034B4FF00042EAE700BF881000209B
S2140022406460004084100020FFF7CCBF38B141B175
S214002250013AB2F5006F044838BF002070470348C3
S21400226070470148704700BF037000F0027000F02E
S2140022700D4910B50B780D4A4BB90124C2E900335D
S214002280C2E902330C7042F82300002010BD002380
S21400229052F823100029F6D08142F4D00133042BE3
S2140022A0F6D10348F2E700BFF4100020E410002047
S2140022B0027000F038B504460D4601F056FCA288C0
S2140022C092B222B92A6001F056FC064838BD1422A4
S2140022D0638802FB034308332B6001F04CFC0020AC
S2140022E0F4E700BF0B7000F038B504460D4601F069
S2140022F03CFCA3889BB223B92B6001F03CFC0C4845
S21400230038BD14226388E18802FB034308332B6040
S21400231063885A1C92FBF1F301FB13239BB2638084
S214002320A388013B9BB2A38001F025FC0020E7E7D1
S2140023300B7000F07FB5012380F8303090F836300F
S21400234083B9036824330D4A049003920022029254
S2140023504A680192012200920A684169C068FFF744
S214002360AFFA07E0022B02D103683433EBE7002311
S21400237080F8303007B05DF804FB00BFCD2B0000BE
S2140023807FB5012380F8313090F8363093B90C4B86
S214002390026803930023049002934B683C32019337
S2140023A0012300930B6801698068FFF76FFA07B096
S2140023B05DF804FB022BEAD0002380F83130F6E704
S2140023C0C5230000F7B5D06A01A91446FFF772FFCF
S2140023D0144B984220D00025019B1D619D6001F0A2
S2140023E0C4FB019A0746D66826B1D2E900232946DF
S2140023F02046B04701A9E06AFFF776FFE06A8388C7
S2140024009BB263B101A9FFF755FF01992046FFF77C
S214002410B7FF384601F0AFFB012003B0F0BD84F8EB
S2140024203130F6E70B7000F090F83530022B0BD108
S2140024303022437F90F821005A43044B9B5823FADE
S21400244000F000F0010070470020704714C0034001
S214002450002313B51C4A52F8234094F821108142F9
S2140024600ED00133042BF6D102B010BD0028FBD1EC
S2140024709DF80730002BF7D0A068FFF73BFAF3E78C
S21400248094F83530022BEFD12046FFF7CDFF637E60
S2140024902076022BE8D194F8323003F0FF02002BAE
S2140024A0E2D102A901F8012DA068FFF783FA237E86
S2140024B01BB194F83330002BD8D00023A06884F8E2
S2140024C03330FFF737FACFE7E410002010B50446A4
S2140024D0FFF7A6F9002104F10800FFF72FF90146DF
S2140024E008B1044810BD04F10C00FFF727F90028D6
S2140024F0F8D0F6E70E7000F090F836306BB942F27E
S2140025001C62042103795B0103F1804303F57033F9
S2140025109950022203685A617047022B07D100685F
S214002520016C11F0020118BF062101F0F5BC7047DE
S21400253090F8363083B9012203685A619A69D20747
S214002540FCD541F21C62042103795B0103F1804350
S21400255003F5703399507047022B07D10068036C5F
S2140025609B074CBF0521092101F0D6BC704700002F
S214002570F8B5044617460D4601F0F7FAA388E28838
S21400258006469A4205D800233B6001F0F4FA164846
S214002590F8BD1422238805F1100C02FB0343083310
S2140025A02A4603CA624518605960154603F10803B7
S2140025B0F6D11068142218602388E18802FB0343D2
S2140025C008333B60238830465A1C92FBF1F301FB2C
S2140025D013239BB22380A38801339BB2A38001F010
S2140025E0CAFA0020D4E700BF0A7000F073B50446AC
S2140025F00D46C07EE67F00293AD0012304223146EC
S21400260001F006FD0123022294F82010207F01F03D
S214002610FFFC94F83530022B19D10023012294F8E0
S2140026202110607F01F0F4FC00230422A07F94F8C0
S214002630221001F0EDFC012394F82120607F019325
S2140026400093114601F090FC002002B070BD032BF1
S214002650FAD10023012294F82110607F01F0D8FC03
S2140026600023042294F82210A07F01F0D1FCEBE7AF
S2140026700B460A46314601F0CBFC2B462A4694F818
S2140026802010207F01F0C4FC94F83530022B13D1C3
S2140026902B462A4694F82110607F01F0B9FC2B46A1
S2140026A02A46A07F94F8221001F0B2FC94F821206C
S2140026B0607F01950123C3E7032BC5D12B462A462D
S2140026C094F82110607F01F0A3FC2B462A46C9E748
S2140026D090F8363013B9036898697047022B06BF26
S2140026E00368186C002070472DE9F3410D46044638
S2140026F0002879D001F039FA012D06463BD1E36A6D
S2140027009B889BB2002B3DD0A068FFF733F90023CF
S214002710E06A84F8313083889BB273B101A9FFF771
S214002720C9FD0199A0680831FFF76CF9344F019B89
S2140027301F61E06A83889BB253BB2046FFF7C8FF41
S2140027408304FAD5023D012D10D8E068FFF712F990
S2140027500023A06A84F8303083889BB23BBB94F891
S2140027603530032B02D02046FFF7C6FE304601F078
S21400277002FA002009E0022D38D1A36A9B889BB29A
S214002780002BDFD101F0F7F91E4802B0BDE8F0815A
S21400279001A9FFF7A9FD019BD3F80C80B8F1000F43
S2140027A0C7D09B68002239462046C047C1E7694625
S2140027B0FFF780FD0099E0680831FFF723F9104F16
S2140027C0009B1F61A06A83889BB2002BC7D0694616
S2140027D0FFF78AFD009BDD68002DF3D09B68002282
S2140027E039462046A847EDE70748CEE7032DA9D18E
S2140027F0E36A9B889BB2002B86D1A36A80E700BF62
S214002800097000F0087000F0027000F0836A988883
S214002810C0B270472DE9F341984600230546806A0A
S2140028200E4684881746A4B2CDE900333CB169460B
S214002830FFF740FD01A90446E868FFF7E3F80099B2
S21400284071B16CB94868019BC01A3860C8F800308E
S2140028500B6833602846FFF73BFF02B0BDE8F08107
S2140028600021C8F8001039603160F3E7C36A988821
S214002870C0B270472DE9F341984600230546C06A6A
S2140028800E4684881746A4B2CDE900333CB16946AB
S214002890FFF710FD01A90446A868FFF7B3F80099F2
S2140028A071B16CB94868019BC01A3860C8F800302E
S2140028B00B6833602846FFF70BFF02B0BDE8F081D7
S2140028C00021C8F8001039603160F3E7007E7047D9
S2140028D02DE9F04104460E469046FFF7B7FC074642
S2140028E0002832D1152001F057F90546E26A938890
S2140028F09BB213B194F8323053B394F8363063BBBE
S21400290023689D6915F0020539D0012384F8343018
S21400291094F83630002B49D1B0444645206840D163
S21400292083699A06FCD585B994F83630002B4FD1CA
S21400293042F21C62102123795B0103F1804303F508
S21400294070339950082223685A613846BDE8F081F2
S214002950002DCCD0FFF778F8C8E7022B1FD12068EF
S214002960056C15F00205D0D1036CD9074CBF0521C4
S214002970062101F0D1FA02221C4B1A60C5E7042298
S2140029805A619A699007FCD541F21C62102123799E
S2140029905B0103F1804303F570339950B5E70025DA
S2140029A0B3E716F8011B01F0A7FEB6E7022BCCD161
S2140029B0B0444645206806D142F22003026C33EA52
S2140029C00202FBD1AFE716F8011B01F0C7FAF0E7E9
S2140029D0022BBAD12068036CDB074CBF09212946BD
S2140029E001F09AFA0222024B1A60AEE7C0D4034006
S2140029F0C0E4034010B5044680B190F832302BB9DD
S214002A00FFF712FD10B9A068FEF774FF002094F8D7
S214002A1032300133DBB284F8323010BD0048FCE7B8
S214002A20027000F010B50446A0B190F832309BB1A9
S214002A3090F83230012B05D1FFF7F6FC10B9A068EC
S214002A40FEF778FF002094F83230013BDBB284F8C2
S214002A50323010BD0148FCE70148FAE7027000F08A
S214002A60057000F037B590F835500446022D1ED19B
S214002A70012190F82220457E837F01FA02F2302061
S214002A80154925B900FB031342F2100105E0012D9C
S214002A9007D100FB031341F210015A50002003B087
S214002AA030BD247E00FB0313002CF4D1ECE7012D8F
S214002AB0F4D1037E73B911238DF80730FFF79AFF20
S214002AC02A460DF107012046FFF702FF2046FFF7D2
S214002AD0A9FFE3E71323EFE700C0034090F8353083
S214002AE0032B05D00229417618BF0176FFF7BABF3F
S214002AF000487047057000F010B50446002835D031
S214002B000321FFF7F1FD00212046FFF7E7FF002134
S214002B102046FFF76BFD94F836300BBB0A2223687D
S214002B205A610021A08C00F0CDFB94F83530032BC1
S214002B3004D0002194F82100FEF7E4FFA068FEF719
S214002B4049FEE068FEF746FEFEF724FE0020A36A74
S214002B50188058809880E36A18805880988010BD46
S214002B60022BDED1206801F0A7F9DAE70048F6E785
S214002B70027000F0F0B587B004461646FFF766FB15
S214002B800546F0B90493104BCDE901166A4601A933
S214002B90A06A03960593FFF7EBFC054688B994F800
S214002BA0303073B92046FFF7C3FC00992046FFF784
S214002BB0C1FB94F83530032B03D025762046FFF76B
S214002BC051FF284607B0F0BD017000F073B5906A5B
S214002BD001A91446FFF76EFB354B98423BD094F89C
S214002BE03600019B002839D12268916C11F40071DF
S214002BF007D030499860196142F248034FF40071DB
S214002C0009E0906CC50540D52B489960186142F2E2
S214002C1048034FF48071D15000F0A7FF0199064693
S214002C20CD6835B14A688B682046D31A0A680969A8
S214002C30A84701A9A06AFFF757FBA06A8588ADB22E
S214002C403DB301A9FFF736FB01992046FFF772FB5B
S214002C50304600F090FF012002B070BD022814D16B
S214002C602268516C11F4007106D0124919610021D6
S214002C70996042F24403C1E7506CC00505D50E4882
S214002C809960186142F24403C3E700221A619A6011
S214002C90C2E7012320462376FFF7E4FE94F835309A
S214002CA084F83050032BD3D02046FFF725FCCFE71F
S214002CB00B7000F00D7000F00C7000F02DE9F04382
S214002CC0044689B0744F01AE0D460FCF0FC697E885
S214002CD0070086E80700002C00F0DB8025B96F4E61
S214002CE0304609B0BDE8F0833C22002120460AF0B9
S214002CF065FD2046FFF7BCFA06460028F0D12B7D7E
S214002D0084F835302B6884F8360023602A7B2271DD
S214002D10634A934240F0A0802823A384614B23613A
S214002D204FF4802300266361D5E90723A26216804C
S214002D305680968084F83060E3621E805E809E80B7
S214002D406B6884F831600393EB8984F83360ADF8E0
S214002D5014302B8A0121ADF81230AB7C3A208DF866
S214002D601030EB7C504F8DF8163005238DF811305F
S214002D7000F0A8FA0121A08C00F0A4FA01A92868A6
S214002D808DF8046001F036FC14222B7B2E7A07EBBC
S214002D904313C3F81C26A87A697A46EA0042C3F8A9
S214002DA03426EA7A41EA024CC3F82CC6E07784F867
S214002DB020206B7DE67621776377AB7D012184F852
S214002DC02130EB7D2046A3772B7E84F82230FFF758
S214002DD00DFC0646002883D100F0C7FE95F8149037
S214002DE08046B9F1030F42D141F21C6202212B7BCF
S214002DF0042007EB4317B95041F25C0229685B01D7
S214002E008850297EEA7D03F1804342EA014241F27E
S214002E10286103F570335A50A97D6A7D42EA014263
S214002E2041F224615A504FF0FF3242F248032868BC
S214002E30C2502B7D032B0CBF0521042101F09CFB07
S214002E404FF440622B6820465A61FFF73FFB064668
S214002E50404600F090FE43E7144A93427FF43FAFAB
S214002E602923A384124B23614FF4A0235AE7B9F118
S214002E70020FD8D194F821000E49FEF743FEFEF764
S214002E8033FEA676267684F819902046FFF7EAFDEC
S214002E90C9E7094E24E700BFC0DA0000037000F05F
S214002EA000C005400200040000C0034000000640C9
S214002EB00200050051240000027000F090F8352052
S214002EC010B5012A034610D102290ED0827E8A420E
S214002ED001D1002010BD997611B9FFF7A3FDF8E7E0
S214002EE00129F6D1FFF786FDF3E70148F2E700BFB8
S214002EF0057000F0F0B587B004461646FFF7A6F951
S214002F00054600BB0493114BCDE901166A4601A99C
S214002F10E06A03960593FFF72BFB054698B994F8ED
S214002F20313083B900F021FEE36A06469B889BB2E7
S214002F3033B100992046FFF723FA012384F8343092
S214002F40304600F018FE284607B0F0BD017000F0CD
S214002F5070B5012488B00E22002104A80AF02EFCC9
S214002F600D22002168468DF810400AF027FC022347
S214002F702146264C24208DF8063000F0A3F96A4638
S214002F800021204601F07EFA236B4FF6FF73204E99
S214002F90E36100233546ADF8123004A9204601F05F
S214002FA024FA4FF4806000F0D7F9BDF812300133F0
S214002FB0B0FBF3F09BB2B3F5806F3060ADF8123023
S214002FC002D2144B9842E8D8002000F0C5F9124906
S214002FD0124CB1FBF0F128680025E1FB0045104AD1
S214002FE00023204629460AF00DFA0E4B074A1860C1
S214002FF000200D4B1870936923F010039361802214
S2140030000A4BC3F880211A6008B070BD00800440E7
S214003010F810002080841E0000B0710B20A107006D
S21400302040420F00FC1000200011002000E100E0EC
S214003030054B5A69D20606D542F214021021995061
S2140030400122024B1A7070470080044000110020D5
S214003050054A1368DB06FCD44FF04023D3F88400FF
S214003060C0F38110704700BF8440004038B5104B55
S2140030700546D3F820310C4603F00303022B0BD091
S214003080032B0DD0012B0FD101F0F0FB052305B16A
S214003090286004B1237038BD01F0D2FB0323F6E7A5
S2140030A001F0ECFB0223F2E700231846EFE700BF2F
S2140030B00080004073B50D4600210E4B0191D3F8F9
S2140030C08041064604F00304012C08D0022C0BD0E5
S2140030D00EB1019B336005B1297002B070BD01A826
S2140030E0FFF7C4FF0D21F3E701F0C8FB214601906E
S2140030F0EEE700BF0080004038B5174B0546D3F812
S21400310024310C4603F00703013B052B20D8DFE8EB
S21400311003F0030F171B0B1301F0A8FB052305B1E3
S214003120286004B1237038BD01F0A0FB0623F6E743
S21400313001F086FB0323F2E701F082FB0423EEE7AF
S21400314001F09CFB0223EAE701F096FB0723E6E783
S21400315000231846E3E700BF0080004038B5104B58
S2140031600546D3F840310C4603F00303022B0BD080
S214003170032B0DD0012B0FD101F084FB092305B1E1
S214003180286004B1237038BD01F082FB0823F6E7FF
S21400319001F07BFB0A23F2E700231846EFE700BFA7
S2140031A00080004038B5134B0546D3F800320C4675
S2140031B003F00703013B032B18D8DFE803F0020AED
S2140031C00E1201F05FFB092305B1286004B12370DD
S2140031D038BD01F05DFB0823F6E701F056FB0A2335
S2140031E0F2E701F017FB0C23800AEDE700231846F0
S2140031F0EAE700BF0080004038B5104B0546D3F81C
S21400320040320C4603F00303022B0BD0032B0DD0E9
S214003210012B0FD101F036FB092305B1286004B15C
S214003220237038BD01F034FB0823F6E701F02DFBD0
S2140032300A23F2E700231846EFE700BF00800040AD
S21400324038B5104B0546D3F860310C4603F003033F
S214003250022B0BD0032B0DD0012B0FD101F012FB4C
S214003260092305B1286004B1237038BD01F010FBB6
S2140032700823F6E701F009FB0A23F2E700231846C5
S214003280EFE700BF008000400D4B10B4D3F82032AB
S2140032900A4603F00303012B0AD0022B0CD008B118
S2140032A0002303600AB1002313705DF8044B7047D7
S2140032B05DF8044BFFF7DABE5DF8044BFFF74EBF30
S2140032C000800040430910B507D0012B0FD00A4CF0
S2140032D00A4A022B14BF2346134600F01F0041B1D2
S2140032E003F58053012202FA00F0186010BD044B6B
S2140032F0F3E703F50053F5E760820040688000407E
S21400330064800040B0F5007F18D005D880B1B0F5D5
S214003310C07F0DD000200FE0B0F5207F14D0B0F5B0
S214003320607FF7D10B4BD3F88000C0F3011003E0A9
S214003330084B186FC0F3033001307047054BD3F8C5
S2140033409000C0F30460F7E7024B186FC0F38020CC
S214003350F2E700BF00800040002313B53E28044675
S214003360019300F0B18042D82B2828D01FD82328FC
S21400337013D00CD8202849D004D8002846D001986D
S21400338002B010BD212808D022283FD0F7E7292810
S21400339000F290802828C0F0838001F03BFA0246B5
S2140033A04FF42070FFF7AEFFB2FBF0F071E031286B
S2140033B010D82F28F1D22D2800F0818056D901F0A0
S2140033C029FA02464FF42070FFF79CFFB2FBF0F09C
S2140033D040085EE03C2855D83A28DED2382864D02B
S2140033E03928CCD1002101A8FFF786FEC7E7B0F543
S2140033F0007F50D01BD8522852D00AD84D2805D06E
S21400340002D83F28C9D0BAE74F28B8D301F002FA4D
S2140034103FE080283BD004D8A0F16004012CF5D909
S214003420ADE7B0F5807F21D0B0F5C07FADE7B0F551
S214003430A06F3AD010D8B0F5607F2CD006D8B0F583
S214003440207FAAD0B0F5407FB9D098E7B0F5806F5E
S21400345026D0B0F5906FC4E7B0F5D06F2FD00AD85D
S214003460B0F5B06F26D0B0F5C06F88D1002101A8A6
S214003470FFF774FE83E7B0F5E06F25D0B0F5F06F88
S2140034807FF47DAF002101A8FFF7DAFE77E701F0B1
S214003490A7F9019073E701F0A3F90246204681E7F9
S2140034A0002101A8FFF7E2FD69E7002101A8FFF768
S2140034B0EBFE64E7002101A8FFF7FCFD5FE70021B3
S2140034C001A8FFF76FFE5AE7002101A8FFF794FE58
S2140034D055E7000008B58020FFF73EFF044B9842F2
S2140034E09FBF42F270034FF48031024AD15008BDAC
S2140034F0005A62020080004038B5054641F2680373
S2140035004FF400300D4AD0500020FFF7FBFE41F686
S21400351071320B4B6843DC690A4DDA639A68A8423D
S21400352004F4803422F4401203D9012918BF42F46F
S21400353080129A600CB10022DA6338BD0080004029
S21400354000000340005A620208B501F075F9BDE8B4
S21400355008400021FFF7D0BF002307B5B0F5807FF5
S2140035608DF8073011D030D82D2800F0828012D880
S2140035702A2841D007D82438032831D99DF80700D7
S21400358003B05DF804FB2C28F8D10DF107010020EC
S214003590FFF7E4FDF2E73D285FD007D83828EDD1E5
S2140035A00DF107010020FFF76FFEE7E73E2833D056
S2140035B08028E3D1374B1B6F03F00703013B032B37
S2140035C0DCD8DFE803F048444262B0F5C06FDCD0D8
S2140035D018D8B0F5906F46D008D8B0F5806FCDD12A
S2140035E00DF107010020FFF741FDC7E7B0F5A06F1A
S2140035F0D6D0B0F5B06FC1D10DF107010020FFF7AE
S21400360059FDBBE7B0F5F06F27D00BD8B0F5D06FFB
S2140036102FD0B0F5E06FB1D10DF107010020FFF714
S214003620EBFDABE7B0F5006F1DD0B0F5086FA5D188
S214003630184BD3F8003103F00303022B1FD0032BE3
S21400364021D0012B23D101F0FBF8032300E0052352
S2140036508DF8073092E70223FAE70DF10701002004
S214003660FFF7EEFD8AE70DF107010020FFF744FDA6
S21400367084E70DF107010020FFF794FD7EE701F0D7
S21400368007F90823E4E701F0F7F80723E0E701234A
S214003690DEE700BF00800040F8B504468020FFF754
S2140036A05BFF032800F0858041F264034FF400219D
S2140036B0464AD15045F60E0302F58042C2F88030E5
S2140036C0022141F22803D15042F228030121D150B1
S2140036D0916D11F48031FBD1637820781B0543EAA5
S2140036E00063A0793A4E0343E078657C43EA0043E2
S2140036F0207943EA0033607943EA80131361237A22
S214003700E0791B0643EA8063E07A0343607A43EA83
S2140037100043A07A43EA00239361637B126A002B7E
S21400372018BF0821207B22F00D0243EA020343EA79
S214003730800341EA0301A37B31624FEA431CE37B2B
S214003740207C4FEA0317314634D1B26A214B22F06F
S214003750330242F0010242EA0C023A43B2628A6D38
S21400376033EA0202FBD1022341F228028B50184AA8
S2140037700B65936D5B00FCD41169A37821F470018E
S21400378041EA0351116141F218034FF00041D15054
S21400379018B942F228030221D15025B942F2280373
S2140037A001210B4AD150A37C1BB1094B0A4AC3F82E
S2140037B08020F8BDB36A23F033032B4343EA0C039F
S2140037C03B4343EA4003B362EDE700BF008000409E
S2140037D000C0004003000140F1A7FFFF0029CCBF56
S2140037E001210021FFF788BE10B50446FFF7ACFEA6
S2140037F000F054F841F270034FF480310C4A013C5B
S214003800D150106F20F4704040EA0430106701F089
S21400381001F80446FFF71CFCC0F102012046FFF742
S214003820DDFF00F041F8BDE81040FFF753BE00BFD3
S21400383000800040B0F5007F1AD004D850B1B0F533
S214003840C07F07D07047B0F5207F1CD0B0F5607FF2
S21400385003D070470846FFF7C7BF0F4A0139D2F8B2
S214003860803023F0300343EA0111C2F8801070471D
S214003870094A0139D2F8903023F0F85343EA01613F
S214003880C2F890107047044A0139136F23F480631E
S21400389043EA8121116770470080004002214FF4FF
S2140038A02070FFF7C7BF000008B54FF4C070FFF7E1
S2140038B053FDBDE80840044988428CBF022101211F
S2140038C04FF42070FFF7B6BF80F0FA02B0F5807FA5
S2140038D070B50C460DD040D82D2800F0128119D8AE
S2140038E02A285DD003D82438032842D970BD2C2856
S2140038F0FCD1083CE4B2022C8CBF00218A4B8B4AD8
S21400390098BF195DD2F8403123F003030B43C2F889
S2140039104031EBE73D2800F0D28011D83828E5D1B9
S2140039200D2C00F0FF800E2C0CBF022100217F4AD8
S214003930D2F8203223F003030B43C2F82032D5E737
S2140039403E2847D08028D1D18B1E052B00F2B480AC
S214003950DFE803F0AF9CB269B2ACB0F5C06FC8D078
S2140039602DD8B0F5906F00F0BB8013D8B0F5806FFF
S214003970BCD1023CE4B2032C8CBF00216C4B6B4ADA
S21400398098BF195DD2F8203123F003030B43C2F829
S2140039902031ABE7B0F5A06FC2D0B0F5B06FA5D1BF
S2140039A0022C03D0A4F10D035C425C415F4AD2F8BE
S2140039B0803123F003031C43C2F8804196E7B0F53C
S2140039C0F06F7CD017D8B0F5D06F00F09A80B0F5C5
S2140039D0E06F8BD1083CE4B2022C8CBF0021554B23
S2140039E0524A98BF195DD2F8403223F003030B43C6
S2140039F0C2F840327AE7B0F5006F71D0B0F5086FC4
S214003A007FF474AFCC1EE4B2052C8CBF00214A4B69
S214003A10464A98BF195DD2F8003123F003030B43E2
S214003A20C2F8003162E7002502260121022000F0DC
S214003A3065F9FFF789FDFFF731FF4FF4803141F25A
S214003A4070033A4AD150136F23F0070333431367CA
S214003A5000F0E0FE0646FFF7FBFAC0F10201304632
S214003A60FFF7BCFE0121002000F080F9FFF71CFFE5
S214003A70FFF730FD002D7FF439AF032C7FF436AF0F
S214003A8042F2280301212D4AD1502FE741F2640368
S214003A904FF40021254A0326D15041F22802012185
S214003AA0264B9D6A9950C5F34005BEE700250426BF
S214003AB0BBE700250126B8E700252E46B5E7083CFB
S214003AC0E4B2022C8CBF00211D4B184A98BF195D2A
S214003AD0D2F8603123F003030B43C2F8603105E7E8
S214003AE0023CE4B2052C8CBF0021164B0F4A98BF4F
S214003AF0195DD2F8243123F007030B43C2F82431B2
S214003B00F4E6083CE4B2042C8CBF00210E4B074AB6
S214003B1098BF195DD2F8003223F007030B43C2F8B2
S214003B200032E3E6012102E7E0DA00000080004010
S214003B30DCDA0000E0DA0000EEDA000000C0004048
S214003B40E0DA0000E3DA0000E9DA0000EFF31080C4
S214003B5072B6704700B962B67047302383F3118897
S214003B607047002383F311887047EFF311803023EA
S214003B7083F31188704780F311887047054A41091E
S214003B8000F01F0352F82100D840C04300F00100A7
S214003B90704700BF00E100E010B50446EFF3108365
S214003BA0DB0733D4FFF7EAFF00282ED1002CABBF8B
S214003BB004F16044164B04F5614404F00F04ACBFF6
S214003BC094F800231A5D1209EFF3118313B1B2EBD8
S214003BD0131F1BD20F4C6368C3F30803ABB1103B33
S214003BE0DBB259B20029B5BF03F00F0301F1604301
S214003BF0043B03F56143B6BF1B1993F80003187E18
S214003C000009824234BF0020012010BD0120FCE7DD
S214003C1014ED00E000ED00E010B5234B70B918601D
S214003C2041F264014FF40030204A50502049496860
S214003C30012902D1D2F800211A6010BD1B68002BA2
S214003C40FBD01B4C6268012AF7D0184A8020C2F8C5
S214003C500031FFF781FC052820D14FF4C070FFF734
S214003C6051FB0128044604D102214FF4C070FFF72F
S214003C70E1FD42F2100207210D4B995041F2040279
S214003C80012199501A69D207FCD5012CD5D12146BD
S214003C90BDE810404FF4C070FFF7CCBD41F20403FE
S214003CA00122E250C9E700BF041100200080004056
S214003CB000C001407047704710B5044610B10020A0
S214003CC0FFF7AAFF0C4A136943F004031361FFF7DA
S214003CD0F1FFFFF73BFF09F083FDFFF73BFFFFF720
S214003CE0EAFF24B1BDE810400120FFF795BFBDE80C
S214003CF0104000F08FBD00BF00ED00E038B5044670
S214003D00194A1368D806FCD44FF04023D3F8843001
S214003D10C3F381139C4225D000F062FD012C0546BA
S214003D2002D12146FFF75AFDFFF710FF4FF48062DD
S214003D30631E9A404FF040231A67D3F88420D106BA
S214003D4003D5D3F88420920609D5FFF703FF022C8B
S214003D5008D12846BDE838400021FFF73FBDD3F81C
S214003D608420EAE738BD00BF8440004010B50C460A
S214003D7008B900F035FD074B21461B783BB1064BD2
S214003D80984204D80120BDE81040FFF7B7BF0220D4
S214003D90F9E700BF08110020005A62024FF04022E7
S214003DA0536F417823F4407343EA01235367704707
S214003DB04FF04022D36E017923F030030B43D366D5
S214003DC07047000041F264034FF00041164A10B5F8
S214003DD0D15041F2040101224AF6CD34134B5A5019
S214003DE0596C1C6478B942F208001A50DA6AD00797
S214003DF0FCD542F2040201209850012902BF0B4B69
S214003E000B4A1A6410BDDA6A1207FCD442F2240286
S214003E102020985041F2080201209850034A536A25
S214003E209B06FCD5E9E700BF008000400040094043
S214003E303254FFFF38B54FF0004141F26403194A8F
S214003E40194CD150012241F20403E2504AF6CD3318
S214003E50656C23644378934013434FF04022D3634A
S214003E60A368827823F0740343EA0213C278002A18
S214003E7014BF042200221343A3600279837943EA25
S214003E80022323614279C379007843EA02236361FF
S214003E90FFF798FF012D08BF044B4FF0010008BF45
S214003EA0236438BD00800040004009403254FFFFC4
S214003EB0C36C0B42FCD1704738B5012541F20403B0
S214003EC04FF4AA61C550FFF7F3FF4FF4D5734FF4D4
S214003ED0AA610363FFF7ECFF002429468462FFF71C
S214003EE0E7FF436B436B436B436B42F20403C550DF
S214003EF041F202038460C460036142F24403054950
S214003F0044618461C46104624462C4628464C150D2
S214003F1038BD00BF7F370C0138B502460C4601237A
S214003F2019B942F20401435038BD41F2040143502E
S214003F3040F2FF71FFF7BCFF04F00F057821056320
S214003F40FFF7B6FF04F00103610748BF43F0020322
S214003F50116C01F003019942FAD1E5E7036C5B06A8
S214003F60FCD5C16370470000072A70B54FF0030404
S214003F7030D895001D4EAC403460A840A6F580565B
S214003F8030601B4801F003010460A940A0F5805092
S214003F90016018491848002B0CBF0B460346012148
S214003FA001FA02F21A609DF810001449144B00281A
S214003FB018BF0B461A6042F2204312499DF81400BF
S214003FC0CA50114B01F5A1510431002818BF0B4609
S214003FD01A6070BDA2F1080189008C4088400B4928
S214003FE00C60A1F580510860D3E700BF00E40340F1
S214003FF008E4034010E4034010D4034014D4034004
S21400400014E4034000C0034024E4034004E40340F7
S214004010F0B54AB1012530241D4E8D4004FB0064E6
S2140040200BB341F21006A55130244443072904F18E
S214004030804404F5703419D80F2765688E00B740A1
S21400404025EA070502FA06F63543656052B90122ED
S21400405002FA01F130220E4C02FB0040A3B141F2FD
S2140040601003C150F0BD42F21006DCE70F2701F145
S2140040708045083DE668AD00AF4026EA070602FA2E
S21400408005F53543E560E1E742F21003E9E700BFD6
S21400409000C003404FF400120B4B10B5C3F880204D
S2140040A0BFF34F8FBFF36F8F0024FF22074B2146CD
S2140040B05C6520209A625C60FFF704F92146BDE843
S2140040C010402120FFF7FEB800E100E000000440A9
S2140040D0054B064A00290CBF19461146012303FA70
S2140040E000F00860704700BF4010044040200440C5
S2140040F010B5012104462020FFF7E4F80121212015
S214004100FFF7E0F80122114B5A60227812069A60F7
S2140041106178A27842EA01429A61FF229A620022FE
S2140041209A631A644FF000424FF0FF315A6542F22C
S214004130500299504FF40011054AC2F88011E378F6
S2140041401B01DBB282F81533116010BD000004407D
S21400415000E100E02DE9F0410C4601264FF0300E5C
S214004160C3B29E40204D23688F7A91F80B8094F856
S2140041700DC0097B45F82030A5F580450EFB0050A4
S2140041804FEA085343EA074343EA4153C0F860C086
S214004190C36542F2500322F003020267EE50FFF7B7
S2140041A0E4FC6B6D33436B65237A13B12B6C33439E
S2140041B02B64637A13B1AB6B3343AB6342F21801E3
S2140041C02379A27942EA0342084B5A506179E27990
S2140041D042EA014241F218015A50054A16609E64AE
S2140041E0BDE8F041FFF7C7BC0040044000000440B3
S2140041F03420044010B50124C0B28440FFF7B5FC5B
S214004200044B5A6D22EA04025A659C62BDE81040CF
S214004210FFF7B1BC00000440F8B50125C3B29D40CD
S2140042200446FFF7A2FC3022094B02FB04341E6D45
S2140042305F6B646EFFF79FFC3D4206D1C4F30A1025
S21400424008B9354200D10130F8BD0020FCE700BFB8
S214004250000004404FF40032014B1A60704700BF64
S214004260705000404FF04023D3F8940070474FF052
S21400427090435A6812B19A6A002AFAD17047000031
S214004280CB784A7810B55B010C7843EA82030A794A
S214004290234343EA02130C22424302F19042136383
S2140042A0012C02BF8A78024B43F8202010BD00BFC5
S2140042B0E880034008B54FF090435A6802B960B1F1
S2140042C05B680BB1FFF7D3FF4FF0904130B1012090
S2140042D0074B1860FFF7CBFFC86008BDFFF7C7FFA6
S2140042E00223CB60FFF7C3FF0122024B1A60F4E7FC
S2140042F004100048042000484FF090435B6870B5F7
S2140043000BB1FFF7B4FF0121104B067919608378D3
S2140043104578002BC37814BF02240024002B14BF5A
S214004320042200224379DB0043EA06132B4323438F
S21400433013434FF090429360054B19600378002BAF
S21400434014BF0B460223D36070BD00BF0420004894
S2140043500410004841F264034FF48031064AD150FD
S214004360064B5B69C3F38512827003F03F021B0B9A
S21400437042700370704700BF0080004000C00740D6
S21400438030B5144CA0421AD004F58044A04218D090
S21400439004F58044A04216D004F58044A04214D010
S2140043A004F58044A0420CBF04204FF0FF300A4CB6
S2140043B0062563B105FB001044F8202030BD002020
S2140043C0F5E70120F3E70220F1E70320EFE712020A
S2140043D0F0E700BF008004400C810340036BDA075F
S2140043E002D503695B06F9D4704710B50446FFF79B
S2140043F0F5FF012242F23003C2500B7948881B02B7
S21400440043EA8043487A03434878002814BF402094
S21400441000200343887A002814BF8020002003432E
S214004420C87A002814BF202000200343087B0028F9
S21400443014BF102000200343487B002814BF082028
S214004440002003438879002814BF4FF480300020F2
S2140044500343636041F23003E2500A780AB902234C
S214004460E3600023C87963620B7A497943EA8003E4
S214004470002914BF102100210B43A3600AB10123B9
S214004480E36010BD70B515460646FFF7A7FF42F27B
S21400449030030122C250EA79EC7A002A6A7A14BF05
S2140044A04FF480100020002A14BF10220022AB799F
S2140044B043EAC4430343134306EB411423662B7AB3
S2140044C033B32B7B226E304642EA4342226613F118
S2140044D0FF3318BF0123AA78FFF752FF41F23003DB
S2140044E00122F2506B782A781B0643EA8263EA7848
S2140044F043EA02332A7943EA82236A7943EA0223AB
S214004500AA7A002A14BF042200221343636670BDF1
S214004510236E2366E2E7000070B5054616461C4685
S21400452021B94FF42070FEF717FF0146202C08D063
S21400453001D8ECB170BD402C18D0602CFAD1042202
S21400454000E0082206FB02F35A0802EB4112B2FB17
S214004550F3F2084B203A03EAC202AB6823F060038A
S214004560AB60AB681C43AC60EA61E3E70622E9E7B0
S2140045701022E7E7F8FF7F00012241F20403C25051
S214004580CB43934003F00A034361416111B942F201
S2140045900403C2507047000041F204030122C250D7
S2140045A040F6AA6341F20502436100238360C365B7
S2140045B0C26042F248020C490361C361C364815081
S2140045C00A4A8365904202D00949884207D1904240
S2140045D0036502D0064B984201D10023436542F2A0
S2140045E004030122C2507047FFFF010000C00540CF
S2140045F00000064038B50D460446FFF7CDFF41F2F1
S21400460004030122C250AB7C1BB1836843F0804395
S2140046108360EB7C5BB1324A2B7D944243D1A2F59A
S2140046201032C2F88C31E36D43F08003E3652A8ACA
S2140046306B7B20461343EA891343E360D5E90112F6
S2140046402B7BFFF769FF6B7D1BB1A36843F48033B8
S214004650A360AB7DEA7D1B07120502F4E00203F0BF
S214004660E043297E1343A3658B1E012B1C4A1D4B7A
S21400467023D894421FD002F5804294420CBF0122F8
S2140046804FF0FF3203EB4213022041F21C62032973
S21400469098500CBF41F25C0342F25C030422E250E5
S2140046A02B78636138BD104A944204BFA2F52032CD
S2140046B0C2F89C31B7E70022E4E794420DD00A4ADC
S2140046C094420CBF01224FF0FF3203EB421302204C
S2140046D042F21C6201299850DBE70022F5E700BF92
S2140046E000C0054000C003400000064083691B066A
S2140046F0FCD5406AC0B2704783695B06FCD5C163CF
S21400470070474369002B07DB39B9436ADB07FCD4E3
S21400471042F204030122C250704741F20403F9E753
S214004720436810B5DA0704460AD5FFF71EFA636A2F
S214004730DB075CBF0123E360BDE81040FFF71BBA50
S21400474010BDF8B5436805460C4633B16B6A002BBE
S214004750FCD142F204030122EA506378227A002B4D
S214004760A37814BF4FF0100C4FF0000C002BE3782A
S21400477014BF02270027002B237914BF0426002627
S214004780002B637A14BF08200020002B14BF4FF4C0
S21400479080710021E379120742EA0362A37942EAB4
S2140047A0034343EA0C033B43334303430B43AB60EF
S2140047B021782846FFF7A5FF63790BB100232B620B
S2140047C0F8BD0000044B054A9A60D3F8882042F4EE
S2140047D07002C3F88820704700ED00E00002000079
S2140047E0084B1B6F03F00703022B04D0032B05D0E6
S2140047F0012B05D0FEE7044B18687047034BFBE718
S2140048000348704700800040780A00207C0A002099
S214004810002D310108B5FFF7E3FF054B1B6FC3F30F
S21400482003330133B0FBF3F0024B186008BD00BF42
S21400483000800040740A00200048704700B4C4049A
S214004840014B1868704700BF7C0A0020054B1860B3
S214004850054B1B6F03F00703032B01D1FFF7DABFED
S214004860704700BF7C0A002000800040014B18689B
S214004870704700BF780A0020002070470048704745
S214004880002D31014FF4004070474FF47A707047A6
S214004890014B1868704700BF800A0020F0B585B04D
S2140048A06E4603463546114C04F1080C3746206820
S2140048B06168083403C764453E46F7D1206821790D
S2140048C02C463860397102AE254603CDB5421860D5
S2140048D059602C4603F10803F6D128681860297938
S2140048E00D2019710123137005B0F0BDF4DA000035
S2140048F07047FDF709BA000010B50446FBF708FF3D
S21400490090F82B30052B03D80122044B1A7010BDEB
S2140049102046BDE81040FDF7F7B900BF091100209A
S21400492010B50446FBF7F4FE90F82B30052B03D9A0
S2140049300422044B1A7010BD2046BDE81040FDF757
S214004940E3B900BF0911002070470020704700003F
S214004950002307B502A901F8013D0448FDF730FA27
S2140049609DF8070003B05DF804FB00BF241100208B
S21400497008B509214FF4E060FEF7A8FFBDE808403F
S21400498001213E20FEF79EBC13B50446FDF734FA1F
S214004990002360430549CDE90033B0FBF1F1044A3A
S2140049A00448FDF7D9F902B010BD00BF40420F0021
S2140049B0F3480000241100200120FFF77DB9000015
S2140049C01FB54FF47A7003A9FDF718FA034630B9FD
S2140049D0CDE90000034A03990348FDF7D7F905B06F
S2140049E05DF804FBF94800000C11002010B501200A
S2140049F0FBF75CFF04460020FBF758FF012C07D1AD
S214004A000128064B02D102221A7000E01C7010BD6D
S214004A100128FCD1014B0422F6E700BF0911002053
S214004A200422014B1A707047091100200122014B25
S214004A301A707047541100202DE9F041012386B00A
S214004A4000224FF4E1310446212002F003F800F082
S214004A50F3FE054601F03CFA2A4603464449212067
S214004A6002F050F8FCF7ACF9FDF71EF90028FDD16E
S214004A70404D4149212002F045F82F46DFF81C81C1
S214004A80002601F00DF994F82B300020052B49D8AC
S214004A9001F0D2FA21210020FCF764FB18B1414650
S214004AA0212002F02FF894F82B30052B16D906A9F2
S214004AB001F8096D3148FDF783F99DF80F306BB9A1
S214004AC004A947F23050FDF799F9034630B9CDE90D
S214004AD000002B4A04992948FDF758F92B78CBB1EA
S214004AE0002001F0A9FA2B78022B1ED12046FBF7F6
S214004AF00CFD204600F0CAF82249212002F002F8F8
S214004B0094F82B202049212001F0FCFF00203E7065
S214004B1001F093FA1D4B1B78002BB2D00120FFF753
S214004B20CBF8ADE701F089FAB4E7012B07D12046B0
S214004B30FBF7FEFC204600F0A9F81549DDE7042B3C
S214004B40DED1144B214618689A889B7904908DF81C
S214004B5016300123ADF81420009304AA07236673C9
S214004B60002000F09FFC204600F090F80A49C4E7B9
S214004B7042DB00000911002059DB00003C11002038
S214004B802149000079DB0000A1DB00005411002061
S214004B9087DB000001DB000094DB000063DB000025
S214004BA070B514460D460B4602460D49212001F00D
S214004BB0A9FF74B16B1EDBB2FC2B0AD8013C094E70
S214004BC0254414F8012F3146212001F09BFFAC420A
S214004BD0F7D10549212001F095FF002070BD00BFE8
S214004BE021DB00003CDB00003FDB00000B460246FA
S214004BF00149212001F086BF08DB0000FFF7A4BEB4
S214004C0001460148FBF7E2BD5511002010B50446E9
S214004C10416A0D48FBF7DAFD0C4A04F1120304F171
S214004C20220153F8040B8B4242F8040BF9D1227C84
S214004C30054B1A75627C5A7594F829209A7594F873
S214004C402B20DA7510BD00BF551100205911002029
S214004C500D4B30B51A4652F8041B03F1140441629A
S214004C6000F1120152F8045BA24241F8045BF9D14C
S214004C701A7D02745A7D42749A7DDB7D80F8292065
S214004C8080F82B3030BD00BF5511002010B504460B
S214004C90FFF7BCFF2046BDE8104001232022014953
S214004CA0FFF753BE5511002010B5044600232022FE
S214004CB00349FFF74AFE2046BDE81040FFF7C8BF8D
S214004CC0551100202DE9F0411D461B7B16462A7C17
S214004CD0002B04460F460CBF0C204C20697B0AB9FB
S214004CE0012901D140F080006B7A43EAC2035BB22F
S214004CF022B16A7CD20002F02002134301226270C5
S214004D000822A2706A6A0029E2704FF0FF020CBF08
S214004D100021402122716271A271E271020649BF30
S214004D204FF00A084FF009080B4363722072296897
S214004D3004EB0800FBF74AFD2B7C08F10402023B5B
S214004D40012B1CD8A018696AFBF740FD042308F164
S214004D500802B018C0B20133034423703B78E22B3C
S214004D6007D194F90830002BBEBF637A23F04003C6
S214004D706372002314449E4203DCBDE8F0810023E6
S214004D80E7E7FA5CE2540133F5E737B50C464BB17A
S214004D90022B0AD102F10A03DBB2082200F016FA4F
S214004DA00434E4B2204603B030BD032BFAD10A2304
S214004DB00093082300F02EFAF2E730B54C6A14F0A0
S214004DC0FF0F04BF01344C6291F82450097BC57074
S214004DD000294FF0010141704FF0080181704FF03B
S214004DE0FF010CBF0D244D24017141718171C17109
S214004DF003F10A01047200F8081B11468C1AA3423C
S214004E0002DC0933D8B230BD11F8014B00F8014F6F
S214004E10F4E770B5049D0C461E46114660B92B4655
S214004E2032462046FFF74EFF2B7C32460146204690
S214004E30BDE87040FFF7A9BF012805D129462046E6
S214004E40BDE87040FFF7B9BF002070BD2DE9FF47F1
S214004E5007780646A7F102095FFA89F9B9F1070F44
S214004E6023D98278437803EB022340F601429BB2B3
S214004E7093421DD040F60102934216D10824325DBB
S214004E80C2F38203032B10D102F00308B8F1010F1E
S214004E900BD8150604F101030CD5F15C0234CB09DE
S214004EA003D0480609D5520607D504B0BDE8F087FA
S214004EB00E24E4E71C46002319460022C1F3C10A6B
S214004EC001F00705CDE9012203927BB175B9B8F16F
S214004ED0000F0ED1335904340193E4B2FBF772FC91
S214004EE0014601A8FBF77AFC18B9DEE7B8F1000F17
S214004EF0F4D0AAF10203012B97BF04220022043447
S214004F00E4B2A3184B4527DC7B1E06EB04091C1BEA
S214004F10A41AE4B26DB9B8F1000F0AD1BAF1020FC3
S214004F2011D100220721A7F10D03DBB2304600F0B5
S214004F3027FAB9F1000FB8D0002CB6D02146484663
S214004F4000F0FEFAB1E7BAF1030FF2D1A7F11702AB
S214004F500A23D2B20821E9E7002DA6D1B8F1000F46
S214004F60A3D14446C146D9E70122014B1A707047C7
S214004F707C120020002170B5044602F0080050EABA
S214004F80010318D0FEF7E2FD0546204603F06AFB53
S214004F90064600F067FA32460146204603F05EFBFE
S214004FA0044600F05FFA2146FFF750FF2846BDE8AA
S214004FB07040FEF7CFBD70BD024B01460022186858
S214004FC002F0FEBF78110020024B01220021186873
S214004FD002F0EABF7811002070B50D4B86B00E4681
S214004FE01D68044630B1002328461A4602F0E0FF4A
S214004FF060B1FEE7074A03AB07CA83E807000094E0
S21400500022463146284602F0D7FFF1E706B070BDCB
S2140050107811002050DD000010B50A460C46014607
S21400502004480123006803F0F4FA844200D0FEE747
S21400503010BD00BF7811002030B54B4991B04B48E9
S21400504002F098FF4A4C2060254600B9FEE7002390
S2140050508DF810304FF4E163ADF812300A2304A93E
S214005060ADF8143003F063FA014600B1FEE720689D
S21400507003F078FA00B1FEE70121206803F096FA03
S214005080024600B1FEE780233A49206803F0C5FADD
S2140050908028ADF80E0000D0FEE70DF10E0236496E
S2140050A0206803F0BEFABDF80E30802B00D100B1A8
S2140050B0FEE74FF00111206803F0A2FA00B1FEE708
S2140050C008220023CDE900234FF0FF324FF0FF33D4
S2140050D0206803F083F900B1FEE740F2011310A93F
S2140050E021F8343D206803F075F900B1FEE720682A
S2140050F003F068FB90BB206803F060FB034600B13A
S214005100FEE71E4C06AA20686168099303C2A068E1
S2140051100CAC106040F20112ADF82C20ADF82E2039
S21400512006AA07CA84E807000F228DF83C20012251
S21400513009A928688DF83D208DF82830ADF82A306A
S2140051408DF83E3003F00AFB024600B1FEE74FF64C
S214005150FF71286803F03AFB00B1FEE7084B1B78A6
S21400516003B9FEE711B030BD694F0000840A002085
S21400517078110020FC1100207C1100205CDD00006E
S2140051807C12002001460148FBF720BBB912002024
S21400519001460148FBF71ABBAC12002010B5094BBC
S2140051A0024693F90030084803EBC304022180232B
S2140051B000EB840000F048FF003018BF012040429A
S2140051C010BD00BF7D1200208012002030B50E4CAE
S2140051D087B0014494F9004004250491002102445C
S2140051E00A4804EBC404019300920595CDE9021128
S2140051F00D23074A00EB840000F046FF003018BF7E
S2140052000120404207B030BD7D12002080120020F1
S214005210B1120020F0B51746144A9BB092F9002050
S2140052209DF880C002EBC205042203EB0C04044484
S214005230014403440E4806AE05920491CDF804C01E
S214005240009339460D23CDE902460A4A00EB850055
S21400525000F01AFF05463A463146204608F0A3FA03
S214005260281C18BF012040421BB0F0BD7D12002054
S21400527080120020B11200202DE9F0438DB008AF57
S2140052800C463E46904602689946079201F1100386
S214005290354620686168083403C59C422E46F7D11F
S2140052A01046FFF76FFF1149212001F02BFC104834
S2140052B0FFF774FF04210F4B0F4C93F9000007AB68
S2140052C000EBC000CDE9049101910093CDE902788E
S2140052D00D230A4A102104EB800000F0D5FE0030B2
S2140052E018BF012040420DB0BDE8F08368DD000025
S2140052F07ADD00007D12002080120020B11200200E
S214005300F0B51F688DB0036807AE069335460B46AA
S21400531001F1100C2C4618685968083303C463451D
S2140053202546F7D1136838460B93FFF731FF104830
S214005330FFF734FF0F4B0BAA93F9000004230492E7
S2140053400D4C129A0593019300EBC00006ABCDE915
S21400535002620093094A0D23102104EB800000F03E
S21400536007FF003018BF012040420DB0F0BD00BF5F
S2140053707ADD00007D12002080120020A41200209A
S214005380F0B515460427134CCA1894F90040861841
S2140053902A449BB0024401440F48059704EBC4041A
S2140053A006AF0492019300910D232946CDE90267CA
S2140053B00A4A00EB840000F0DBFE04462A46394623
S2140053C0304608F0F0F9201C18BF012040421BB000
S2140053D0F0BD00BF7D12002080120020A412002025
S2140053E02DE9F8430024194B054619481C7016464B
S2140053F0894600F023FE23461A46164CDFF85880EE
S2140054001A5503F8082001330D2BF9D10527296812
S2140054101148FBF7DBF929681048FBF7D7F900219C
S2140054200C4888F80C70FBF7D1F929680C48FBF794
S214005430CDF930462773FFF7A5FE3046FFF7A8FEE6
S2140054404846BDE8F843FFF7A9BE00BF7D1200201E
S21400545080120020A4120020B1120020B5120020F5
S214005460A812002000487047BE12002070B50C46F7
S21400547015461E4650B92046FFF786FA2846FFF71F
S2140054809BFDFFF765FA0028FBD170BDFFF77CFA9D
S214005490FFF75EFA0028EED0002EF9D0FFF78CFA60
S2140054A0F6E700003B2BA8BF3B232DE9F3410C4653
S2140054B016469DF820801F46054650B9486A0130BA
S2140054C04862FFF79DFB606AFFF75CFE606AFFF7C5
S2140054D05FFE3B463246194928460094FFF799FC82
S2140054E081B21648FFF798FD00254FF47A77FFF74C
S2140054F06BFD03F0D6F894F82910064694F82800B9
S214005500FFF76AFDFFF760FD637B7BB103F0C9F828
S21400551094F80EC0E17B301A012394F829207943D1
S21400552007FB0C00FFF7A2FFFFF74EFD0135EBB2BD
S2140055309845DCD8002002B0BDE8F0813E1300207C
S214005540F8B50646E8B1E1B10546013915F8017B24
S214005550CCB22A4621463846FFF722FB88B9F02F00
S21400556009D0F32F0DD17078BDE8F84000F00F0099
S2140055700B30FAF7B2BF29462046BDE8F840FAF7E6
S214005580B4BFF8BD42DE704738B504460D4600F09D
S21400559087FBFEF7E2FA29462046FFF727FB2B4655
S2140055A022460549012001F0ADFA29462046BDE80D
S2140055B03840FFF7E7BF00BF8ADD00006D4B2DE9DE
S2140055C0F0415A686C4CA2655A6AE2656B4AD2F89A
S2140055D000122166D2F8042262669A6AA266DA6A25
S2140055E0E2661A6B22675A6B6267A26BDB6B12F07D
S2140055F0040FA367D4E90F5318BF1D4607F0F0FE4B
S214005600002285420346606522655DD35C4A95426A
S2140056105AD8AA696264E969A164B4F85810C1F35B
S2140056200801062954D157498A4251D356498A421D
S2140056304ED211884DF64262914249D140F2017035
S2140056406268C4F89420A268C4F898204F4A50496B
S214005650934238BF13460A468B423CD3D31AE364C0
S2140056600023C4E91F33C4E92133C4E92333484E79
S214005670444FDFF814C1AE4233D8D4E91FC7D4E98B
S2140056802165D4E923124FF0000E013BDBB2FF2B5D
S21400569042D1BEF1000F05D0C4E91FC7C4E9216599
S2140056A0C4E92312B4F85830C3F30803052B57D0C7
S2140056B03CD8032B47D0042B58D040F60722013B9A
S2140056C04E2B98BF104640E000221D46C4E911222A
S2140056D04FF42060BAE71E68B6F1CD3FBED1043362
S2140056E0BAE756F8042DBA42C5D36245C3D2D107ED
S2140056F0C1D5002104EB010EDEF87CE09645BAD059
S21400570004311829F6D10BB9052301E0013BDBB2C1
S21400571004EB8301CA67AEE7E0464FF0010EBC46D5
S21400572037462E460D4611464246AEE70C2B1AD09B
S2140057303B2B0CD0062BC0D140F60423B0F5206FCF
S21400574008BF184601E040F60120BDE8F081114B85
S2140057509B6913F0020F40F2025318BF1846F4E795
S21400576040F60320F1E740F60520EEE740F602207B
S214005770EBE700BF00ED00E00000002000E100E0E5
S214005780000A002058030000F0D700009C0000200C
S214005790200A00200080014A10B5FEF763FD04468B
S2140057A0FEF758FD0022012101FA02F3234014D02F
S2140057B01B4B33F812301B4A062B13D040F207213E
S2140057C08B420DD1184919480C68844208D14CF216
S2140057D03C334B800B88138012E00132102AE3D151
S2140057E0104AF8E74FF20F010F4B5888884214D141
S2140057F01988B1F5406F10D211804CF23C325A80B5
S214005800084B1A8840F201739A4201BF084B094AB6
S214005810D2E90001C3E9000110BD4FF4C061EBE717
S2140058209EDD0000C81300200000002007020FF0D5
S214005830C013002094000020014B1888000A70470F
S214005840C813002000F00CB800F00AB800F008B842
S21400585000F006B800F004B800F002B800F000B897
S21400586072B61EF0080F09D01EF0040F0DD0DFF838
S21400587050E0AEE8FF1F6FF002000CE0DFF840E0FB
S214005880AEE8FF1F6FF00E0005E0DFF834E0AEE88C
S214005890FF1F6FF006006946EFF309828EE80700E7
S2140058A086460848084C854501D3A54501D384F3B0
S2140058B00888FFF783FE84F3088807F06DFD000074
S2140058C00400002000010020200A002070B5564C7D
S2140058D094B0FEF746F92068616803AB03C303A8DB
S2140058E0FEF7A8FA00238DF80830022302A88DF8E8
S2140058F00930FEF753FA0AAA164604F108031834CC
S214005900154618685968083303C5A3422A46F7D1D6
S21400591019889B782980AB7078230DF107010DF16B
S21400592006008DF832308DF8313007F00BFD002878
S2140059306ED09DF806308DF832309DF807308DF821
S21400594031303046FDF7A8FE3848FEF77FFF0321CA
S2140059508020FDF7BBFF05214FF48060FDF7B6FF02
S21400596009214FF4C060FDF7B1FF314D09214FF416
S214005970F060FDF7ABFF05AC09214FF4E060FDF7E2
S214005980A5FFFAF75DFF0FCD0FC42B6805A9002011
S214005990236002F083FEFAF739FD4FF4E133254A1F
S2140059A00125CDE90A2340F20563ADF832304FF405
S2140059B080530022ADF836304FF0101331462120C8
